:02000000A6292F
:10000800FF00030E8301AE000A08AF008A017008E2
:10001800A2007108A1007208A0000B1D1D28F8306D
:100028008100AB0A0319AC0AA70A0319A80AFB3016
:100038008B050C1D46282D0803192F282608F000CB
:10004800F1017008960025089500AD010930970068
:100058008F018E0144282508403CF3002608031C24
:10006800013E9C3CF4007408F000F1017008960011
:1000780073089500083097000130AD008F018E019C
:10008800FB308C050C1C4A28FE308C052208F00039
:100098002108F1002008F2002F088A002E0E8300A4
:0600A800FF0E7F0E0900AF
:0A00AE000F308312031387050800CA
:1000B80083120313AB01AC0180302C06F0008030B2
:1000C80031067002031D6A2830082B0203186D28B8
:0400D8006028080094
:1000DC000F30831203130705F000503070048700B3
:1000EC000330B0000030B1005C2057200330B0006A
:0800FC000030B1005C20080097
:100104000F30831203130705F000A030700487003A
:100114000330B0000030B1005C2057200330B00041
:080124000030B1005C2008006E
:10012C00831203131F151F1D9C2899281E08F1000C
:0E013C00F00183161E08F0040030F1040800E4
:10014A000F30831203130705F00090307004870004
:10015A000430B0000030B1005C2057200430B000F9
:08016A000030B1005C20080028
:100172000F30831203130705F0006030700487000C
:100182000430B0000030B1005C2057200430B000D1
:080192000030B1005C20080000
:10019A00962070088312A3007108A400881F0729FB
:1001AA0000302402031DDB2864302302031CE628E6
:1001BA002408033C031DE3282308B63C031CE62855
:1001CA00E72807298814B830B0000B30B1005C204A
:1001DA00FD308805B830B0000B30B1005C20AC307F
:1001EA00A5000D30A600DC30B0000530B1005C205F
:1001FA00E830A5000330A600DC30B0000530B100BD
:10020A005C20D328FD308805CA30A5000830A60036
:02021A000800DA
:10021C0083120313881E2629A701A801881B2529F0
:10022C0080302806F0008030133A7002031D20291C
:10023C0088302702031C23292529B920142957208B
:02024C000800A8
:10024E00962070088312A3007108A40000302402C7
:10025E00031D332964302302031C48292408033C60
:10026E00031D3B292308DE3C031C4829061B40299D
:10027E004829962070088312A3007108A4008220DA
:06028E002D295720080095
:100294000130831603138500403086008701FD304A
:1002A4008800831286018701FD3088058730831614
:1002B4008100F83083128100E0308B00013090001F
:1002C4008F018E010830970083160C1507308312B6
:1002D4009600D03095000130AD0041309F00CE3003
:0602E40083169F000800D4
:1002EA0083120313081E8D29A701A801881B8C29D4
:1002FA0080302806F0008030133A7002031D8729E7
:10030A0088302702031C8A298C29A5207B2957209B
:02031A000800D9
:10031C00962070088312A3007108A40000302402F8
:10032C00031D9A29643023020318A4296E209620F9
:10033C0070088312A3007108A400942957200800A8
:10034C004A2175210E2127218E21CD20861FBB2904
:10035C008814B830B0000B30B1005C20FD3088053B
:0E036C00B830B0000B30B1005C20A729BC29CE
:02400E004A2F37
:00000001FF
